:030000000200C833
:0C00C800787FE4F6D8FD7581200200036B
:1000950053544338392D393078780D0A55617274C7
:0A00A500205465737420210D0A0039
:10000300759850758920758BFD758DFDD28ED2AC98
:0D001300D2AF7BFF7A00799512007080FE5D
:03002300020026B2
:10002600C0E0C0F0C083C082C0D075D000C000C0A0
:0D00360001C002C003C004C005C006C00721
:10004300E4309807C298AF991200D4309904C2994A
:02005300C200E9
:10005500D007D006D005D004D003D002D001D000FF
:0B006500D0D0D082D083D0F0D0E032A9
:0800D4002000FDD2008F9922EB
:100070008B088A09890AAB08AA09A90A1200AF608D
:1000800013050AE50A7002050914F91200AFFF1200
:0500900000D480E22213
:1000AF00BB010689828A83E0225002E722BBFE024F
:0900BF00E32289828A83E4932282
:00000001FF
